:100000000C9462000C948A000C948A000C948A0070
:100010000C948A000C948A000C948A000C948A0038
:100020000C948A000C948A000C948A000C948A0028
:100030000C948A000C948A000C948A000C948A0018
:100040000C940A060C948A000C947A060C945406BC
:100050000C948A000C948A000C948A000C948A00F8
:100060000C94AC060C948A000000000024002700C9
:100070002A0000000000250028002B0000000000DE
:1000800023002600290004040404040404040202DA
:100090000202020203030303030301020408102007
:1000A0004080010204081020010204081020000012
:1000B0000008000201000003040700000000000027
:1000C0000000DA0711241FBECFEFD8E0DEBFCDBF9E
:1000D00011E0A0E0B1E0E4E0F5E102C005900D928E
:1000E000A83DB107D9F723E0A8EDB1E001C01D920A
:1000F000AC35B207E1F710E0C2E6D0E004C02197CA
:10010000FE010E94750AC136D107C9F70E94310865
:100110000C94800A0C94000030919A02313208F05D
:100120004BC0809176028111FCCF9091990222E020
:100130002093760221E0209375022FEF2093740222
:100140001092730230937202E9E7F2E0A2E5B2E0A6
:1001500020E0321721F041914D932F5FFACF10929A
:10016000510220915102990F922B9093510290913C
:100170005002913061F4109250029091510290938C
:10018000BB009091BC0093FDF8CF95EC01C095EEBB
:100190009093BC00909176029230E1F390917402BA
:1001A0009F3F79F080917402803241F08091740217
:1001B000803331F084E005C081E003C082E001C0FB
:1001C00083E01092780210929A02109277020895BA
:1001D000833081F028F4813099F08230A1F00895C5
:1001E0008730A9F08830B9F08430D1F48091800054
:1001F0008F7D03C0809180008F7780938000089569
:1002000084B58F7702C084B58F7D84BD08958091B9
:10021000B0008F7703C08091B0008F7D8093B000D5
:100220000895CF93DF93282F30E0F901E255FF4F77
:100230008491F901E656FF4FD491F901EA57FF4F37
:10024000C491CC2391F081110E94E800EC2FF0E0E2
:10025000EE0FFF1FE458FF4FA591B491EC91ED23F1
:1002600081E090E021F480E002C080E090E0DF9146
:10027000CF9108951F93CF93DF93282F30E0F9019A
:10028000E255FF4F8491F901E656FF4FD491F901F1
:10029000EA57FF4FC491CC23C1F0162F81110E9461
:1002A000E800EC2FF0E0EE0FFF1FEE58FF4FA59196
:1002B000B4919FB7F894111104C08C91D095D823B4
:1002C00002C0EC91DE2BDC939FBFDF91CF911F9199
:1002D0000895CF93DF9390E0FC01E656FF4F249101
:1002E000FC01EA57FF4F8491882361F190E0880F69
:1002F000991FFC01E859FF4FC591D491FC01EE58BC
:10030000FF4FA591B491611109C09FB7F8948881FE
:10031000209582238883EC912E230BC0623061F4F8
:100320009FB7F8948881322F309583238883EC918E
:100330002E2B2C939FBF06C08FB7F894E8812E2BED
:1003400028838FBFDF91CF9108953FB7F8948091B4
:100350004C0290914D02A0914E02B0914F0226B5F1
:10036000A89B05C02F3F19F00196A11DB11D3FBFED
:10037000BA2FA92F982F8827820F911DA11DB11D7B
:10038000BC01CD0142E0660F771F881F991F4A9577
:10039000D1F708958F929F92AF92BF92CF92DF9242
:1003A000EF92FF926B017C010E94A5014B015C0161
:1003B000C114D104E104F104F1F00E94A501DC01B3
:1003C000CB0188199909AA09BB09883E9340A10568
:1003D000B10570F321E0C21AD108E108F10888EEF6
:1003E000880E83E0981EA11CB11CC114D104E10445
:1003F000F10419F7DDCFFF90EF90DF90CF90BF9021
:10040000AF909F908F90089508950895CF92DF92B6
:10041000EF92FF920F931F93CF93DF936C017A01BA
:100420008B01C0E0D0E0CE15DF0581F0D8016D91E1
:100430008D01D601ED91FC910190F081E02DC60176
:100440000995892B11F02196EECF7E01C701DF912E
:10045000CF911F910F91FF90EF90DF90CF90089573
:10046000FC01538D448D252F30E0842F90E0821BBA
:10047000930B541710F0CF96089501970895FC013F
:10048000918D828D981761F0828DDF01A80FB11DCB
:100490005D968C91928D9F5F9F73928F90E00895EF
:1004A0008FEF9FEF0895FC01918D828D981731F0A9
:1004B000828DE80FF11D858D90E008958FEF9FEFFD
:1004C0000895FC01918D228D892F90E0805C9F4FD3
:1004D000821B91098F73992708958BE992E00E94FE
:1004E000610221E0892B09F420E0822F0895FC01AC
:1004F000848DDF01A80FB11DA35ABF4F2C91848DAD
:1005000090E001968F739927848FA689B7892C93E1
:10051000A089B1898C91837080648C93938D848D34
:10052000981306C00288F389E02D80818F7D808337
:100530000895EF92FF920F931F93CF93DF93EC01F7
:1005400081E0888F9B8D8C8D981305C0E889F9898F
:10055000808185FD26C0F62E0B8D10E00F5F1F4FAA
:100560000F731127E02E8C8DE8120CC00FB607FC1C
:10057000FACFE889F989808185FFF5CFCE010E9405
:100580007702F1CF8B8DFE01E80FF11DE35AFF4F8B
:10059000F0829FB7F8940B8FEA89FB898081806293
:1005A0000AC09FB7F894EE89FF896083E889F989CA
:1005B00080818370806480839FBF81E090E0DF91C1
:1005C000CF911F910F91FF90EF900895CF93DF93FC
:1005D000EC01888D8823C9F0EA89FB89808185FD3B
:1005E00005C0A889B9898C9186FD0FC00FB607FC9C
:1005F000F5CF808185FFF2CFA889B9898C9185FFDD
:10060000EDCFCE010E947702E7CFDF91CF91089521
:1006100080E090E0892B29F00E946D0281110C94FA
:1006200000000895CF93DF93EC0160E08E810E947B
:100630003A0161E08E810E943A0160E08E810E9461
:100640003A018BE891E00197F1F7DF91CF9108959E
:10065000CF92DF92EF92FF920F931F93CF93DF938E
:100660006C017C0187E0E80EF11CC0E0D0E0062FB1
:1006700010E0B8010C2E02C0759567950A94E2F758
:100680006170F70181917F010E943A012196C43087
:10069000D10579F7C601DF91CF911F910F91FF909E
:1006A000EF90DF90CF900C941203CF92DF92EF92F5
:1006B000FF920F931F93CF93DF93EC01F62E642FDD
:1006C0008C810E943A018D818F3F19F060E00E9479
:1006D0003A018F850F2D10E084FF25C06E0187E061
:1006E000C80ED11CE12CF12CB8010E2C02C075955E
:1006F00067950A94E2F76170F60181916F010E949B
:100700003A01FFEFEF1AFF0A88E0E816F10461F7FB
:10071000CE01DF91CF911F910F91FF90EF90DF906D
:10072000CF900C941203B80184E0759567958A9573
:10073000E1F7CE010E9428036F2DCE01DF91CF910A
:100740001F910F91FF90EF90DF90CF900C942803B2
:1007500040E0682F84E493E00C94550381E00E940C
:10076000A8038BE39FE10197F1F70895CF93DF93FF
:10077000623028F0909153039860909353036093F4
:1007800057031092580390E49093590380935A03AF
:1007900090E0805C9F4F80935B0361E08091480311
:1007A0000E946901809149038F3F19F061E00E9426
:1007B000690161E080914A030E946901C4E4D3E0C9
:1007C0009E01245433408091530384FD03C084E090
:1007D00090E002C088E090E02196281739072CF4B9
:1007E00061E08E810E946901EBCF8BE39DE0019770
:1007F000F1F760E0809148030E943A0160E0809147
:100800004A030E943A01809149038F3F19F060E04A
:100810000E943A018091530384FD20C063E084E488
:1008200093E00E942803CBE4D6E4CE010197F1F7D0
:1008300063E084E493E00E9428032197F1F763E0EA
:1008400084E493E00E94280383E592E00197F1F7A6
:1008500062E084E493E00E94280315C080620E9455
:10086000A8038BE496E40197F1F78091530380622B
:100870000E94A80383E592E00197F1F7809153036A
:1008800080620E94A8038091530380620E94A803A3
:1008900084E0809354038CE00E94A8030E94AE037E
:1008A00082E08093550386E0DF91CF910C94A803FA
:1008B000843008F083E090915703891710F08FEF90
:1008C000890FE82FF0E0EC5BFC4F848980680C9482
:1008D000A80341E00E94550381E090E0089585ED72
:1008E0008093BC008091BC0084FDFCCF1092760206
:1008F000089540911802262F30E0240F311D213237
:100900003105DCF4209176022430C9F4FC0180E04A
:1009100090E0861758F4309118022191DC01A8501C
:10092000BE4FA30FB11D2C930196F3CF80911802F7
:10093000680F6093180280E0089581E0089582E0D6
:1009400008950895E091400280913F02E81730F445
:10095000F0E0E852FE4F808190E008958FEF9FEF26
:1009600008959091400280913F02981750F4E92F2A
:10097000F0E0E852FE4F208130E09F5F909340020C
:1009800002C02FEF3FEFC901089580913F0290E030
:1009900020914002821B91090895CF92DF92EF923D
:1009A000FF920F931F93CF93DF937C01CB018A01BA
:1009B00020917702222389F0EB016B01C40ED51E32
:1009C000CC15DD0569F06991D701ED91FC9101909D
:1009D000F081E02DC7010995F3CF642F0E947904BF
:1009E000C801DF91CF911F910F91FF90EF90DF90A1
:1009F000CF900895CF93DF931F92CDB7DEB7698371
:100A0000209177022223D1F020919A02203240F0E7
:100A100021E030E0FC013383228380E090E015C0C8
:100A200080917802E82FF0E0E758FD4F998190839C
:100A30008F5F8093780280939A0205C061E0CE01B7
:100A400001960E94790481E090E00F90DF91CF91B0
:100A50000895682F88E393E00C94FA04089580E0E9
:100A600090E008951F93CF93DF93EC01162F81E060
:100A70008093770280E58093990210927802109219
:100A80009A028D2F9D2F990F990B0E942905CE0157
:100A900099270E942905612F88E393E00E94FA04B8
:100AA0000E948C0065E070E080E090E0DF91CF91E3
:100AB0001F910C94CA010E947B0A6115710579F09F
:100AC000FB0101900020E9F73197AF01461B570B5E
:100AD000DC01ED91FC910280F381E02D099480E02E
:100AE00090E008954F925F926F927F928F929F92C3
:100AF000AF92BF92CF92DF92EF92FF920F931F932C
:100B0000CF93DF93CDB7DEB7A1970FB6F894DEBFD2
:100B10000FBECDBF8C016B01770FEE08FF08F7FE0B
:100B20002FC0DC01ED91FC910190F081E02D6DE290
:100B300009955C0122273327A9012C193D094E098B
:100B40005F0919A2FE01B1967F019AE0492E512C4E
:100B5000612C712CCA01B901A30192010E943F0AC4
:100B6000605DD7016E937D01211531054105510569
:100B700089F7BD01C8010E945D058A0D9B1D1EC03D
:100B8000A701960119A2FE01B1967F018AE0882E85
:100B9000912CA12CB12CCA01B901A50194010E948C
:100BA0003F0A605DD7016E937D0121153105410536
:100BB000510589F7BD01C8010E945D05A1960FB6D8
:100BC000F894DEBF0FBECDBFDF91CF911F910F9183
:100BD000FF90EF90DF90CF90BF90AF909F908F905D
:100BE0007F906F905F904F900895CF93DF93BC01FB
:100BF0008BE992E00E947205EC0160E371E08BE901
:100C000092E00E945D058C0F9D1FDF91CF910895AA
:100C10000C945D051F920F920FB60F9211242F9323
:100C20003F938F939F93AF93BF938091480290918E
:100C30004902A0914A02B0914B023091470223E051
:100C4000230F2D3720F40196A11DB11D05C026E804
:100C5000230F0296A11DB11D2093470280934802E5
:100C600090934902A0934A02B0934B0280914C02A8
:100C700090914D02A0914E02B0914F020196A11D9C
:100C8000B11D80934C0290934D02A0934E02B093FD
:100C90004F02BF91AF919F918F913F912F910F90F4
:100CA0000FBE0F901F9018951F920F920FB60F92C4
:100CB00011242F933F934F935F936F937F938F9361
:100CC0009F93AF93BF93EF93FF938BE992E00E94C2
:100CD0007702FF91EF91BF91AF919F918F917F919B
:100CE0006F915F914F913F912F910F900FBE0F9099
:100CF0001F9018951F920F920FB60F9211242F93E9
:100D00008F939F93EF93FF93E091AB02F091AC022E
:100D10008081E091B102F091B20282FD12C0908117
:100D20008091B4028F5F8F732091B502821751F0CA
:100D3000E091B402F0E0E556FD4F958F8093B40248
:100D400001C08081FF91EF919F918F912F910F9022
:100D50000FBE0F901F9018951F920F920FB60F9213
:100D600011242F933F934F935F936F937F938F93B0
:100D70009F93AF93BF93EF93FF938091B900887FC8
:100D8000803609F49CC068F5883209F45BC090F4A1
:100D9000803109F454C038F4882309F4F6C088304F
:100DA00009F44DC0F6C0883109F44CC0803209F412
:100DB0005DC0EFC0803409F468C048F4803309F4A2
:100DC00055C0883309F0E5C080937402D8C08035DF
:100DD00009F44FC0883509F45DC0883409F0D9C0E2
:100DE000D6C0883909F4C7C0A8F4883709F467C0A9
:100DF00038F4883609F463C0803709F460C0C9C08C
:100E0000883809F4B8C0803909F45FC0803809F027
:100E1000C0C05BC0803B09F486C038F4803A09F456
:100E200066C0883A09F47FC0B4C0803C09F4A7C00A
:100E3000883C09F4A4C0883B09F48AC0AAC0809108
:100E4000510210C09091730280917202981770F550
:100E5000E091730281E08E0F80937302F0E0EE5A0E
:100E6000FD4F80818093BB0085EC86C08093740227
:100E70008EC0E091730281E08E0F809373028091A7
:100E8000BB00F0E0EE5AFD4F808390917302809199
:100E900072026EC0E091730281E08E0F8093730244
:100EA0008091BB00F0E0EE5AFD4F80838091750287
:100EB00081116DC081E08093500284EA61C083E0BB
:100EC0008093760210923A02CFCF80913A0280321C
:100ED00008F051C0E0913A0281E08E0F80933A020F
:100EE0008091BB00F0E0E65EFD4F8083BDCF85ECD6
:100EF0008093BC001092760280913A02803230F4E6
:100F0000E0913A02F0E0E65EFD4F108260913A0215
:100F100070E0E0913B02F0913C028AE192E0099599
:100F200010923A0236C084E0809376021092190241
:100F300010921802E0913D02F0913E0209958091D5
:100F40001802811105C081E0809318021092F80107
:100F5000E091190281E08E0F80931902F0E0E850D1
:100F6000FE4F80818093BB009091190280911802FE
:100F7000981708F479CF85E88093BC000AC085EC07
:100F80008093BC001092760204C0109274020E94FA
:100F90006F04FF91EF91BF91AF919F918F917F91DE
:100FA0006F915F914F913F912F910F900FBE0F90D6
:100FB0001F901895EBE9F2E01382128288EE93E01D
:100FC000A0E0B0E084839583A683B78324E031E07A
:100FD0003183208325EC30E03587248724EC30E012
:100FE0003787268720EC30E0318B208B21EC30E0F6
:100FF000338B228B22EC30E0358B248B26EC30E0D7
:10100000378B268B118E128E138E148EE8E3F3E04D
:101010001382128284839583A683B78386E191E04D
:1010200091838083E4E4F3E01382128288E291E00A
:101030009183808384E084838FEF858385E086833A
:1010400086E0878387E0808788E0818789E08287E0
:101050001386148615861686178661E080E10C9447
:10106000B603789484B5826084BD84B5816084BD04
:1010700085B5826085BD85B5816085BD80916E0036
:10108000816080936E001092810080918100826067
:1010900080938100809181008160809381008091A4
:1010A00080008160809380008091B1008460809393
:1010B000B1008091B00081608093B00080917A008F
:1010C000846080937A0080917A00826080937A00B5
:1010D00080917A00816080937A0080917A008068A4
:1010E00080937A001092C1001092400210923F0249
:1010F0001092780210929A021092760281E0809308
:1011000075021092500261E082E10E943A0161E0B2
:1011100083E10E943A018091B9008E7F8093B900EB
:101120008091B9008D7F8093B90088E48093B800E6
:1011300085E48093BC0084E092E090933E0280932B
:101140003D0285E092E090933C0280933B02E09167
:10115000AB02F091AC0282E08083E091A702F091B3
:10116000A8021082E091A902F091AA028FEC80837C
:101170001092B302E091AF02F091B00286E080835A
:10118000E091AD02F091AE02808180618083E091B8
:10119000AD02F091AE02808188608083E091AD0263
:1011A000F091AE02808180688083E091AD02F09181
:1011B000AE0280818F7D808360E082E00E946901C1
:1011C00060E083E00E94690160E08AE00E946901BA
:1011D00064E084E10E94B60363E371E084E493E099
:1011E0000E94080682E00E94580462E471E084E4F0
:1011F00093E00E94080660ED77E080E090E00E94B6
:10120000CA010E94AE03C0E0D0E06FEFCE010E94A1
:1012100032052196C432D105C1F70AE010E08AE018
:101220000E941101892BF1F4C0E0D0E001E010E54B
:1012300000937702109399021092780210929A020A
:101240008D2F9D2F990F990B0E942905CE0199276B
:101250000E9429058FEF90E00E9429050E948C00D2
:101260002196E6CF82E00E941101892B49F08091FE
:101270004502909146020196909346028093450262
:1012800083E00E941101892B49F0809143029091E3
:1012900044020196909344028093430220914502B8
:1012A000309146028091430290914402820F931F35
:1012B00090934202809341020E94AE0382E00E941A
:1012C00058046DE471E084E493E00E9408066091A4
:1012D00043027091440284E493E00E94720583E02B
:1012E0000E9458046DE571E084E493E00E940806D2
:1012F000609145027091460284E493E00E94720579
:1013000080E00E9458046EE671E084E493E00E945D
:101310000806609141027091420284E493E00E94C9
:10132000720581E00E94580460914102709142026E
:1013300084E493E00E947205809141029091420200
:10134000C0E01816190624F5B8010E942B0A6B019B
:10135000D82FB92EEC2EF12C682FC7010E94320530
:1013600060E871E08BE992E00E940806B7018BE922
:1013700092E00E9472056DE971E08BE992E00E94B3
:1013800008068D2F9B2D0E94F505CF5FC601D9CF92
:101390008091450290914602F12C181619062CF501
:1013A000B8010E942B0A6B01E82EB92ECF2DD0E098
:1013B0002C96682FCE010E94320562EA71E08BE91B
:1013C00092E00E940806BE018BE992E00E9472053D
:1013D0006DE971E08BE992E00E9408068E2D9B2D4D
:1013E0000E94F505F394C601D8CF809143029091F5
:1013F0004402F12C181619062CF5B8010E942B0A8C
:101400006B01E82EB92ECF2DD0E06896682FCE0163
:101410000E9432056DEB71E08BE992E00E940806B4
:10142000BE018BE992E00E9472056DE971E08BE9E3
:1014300092E00E9408068E2D9B2D0E94F505F394E4
:10144000C601D8CF64EF71E080E090E00E94CA014D
:101450000E940803E4CE97FB072E16F4009407D0F1
:1014600077FD09D00E94610A07FC05D03EF49095F3
:1014700081959F4F0895709561957F4F0895A1E2E2
:101480001A2EAA1BBB1BFD010DC0AA1FBB1FEE1FFE
:10149000FF1FA217B307E407F50720F0A21BB30B49
:1014A000E40BF50B661F771F881F991F1A9469F7C5
:1014B00060957095809590959B01AC01BD01CF0121
:1014C0000895AA1BBB1B51E107C0AA1FBB1FA6178B
:1014D000B70710F0A61BB70B881F991F5A95A9F7DD
:1014E00080959095BC01CD010895EE0FFF1F0590EA
:1014F000F491E02D099481E090E0F8940C94800A36
:04150000F894FFCF8D
:1015040000000000990206023002E60261023F0276
:10151400530200000000FA04CD042F05A104C50401
:10152400B104A20400000000690406022F052E0580
:101534000D0A006F626A65637420636F756E74656B
:1015440072002070726F6A656374342000424144F3
:101554002050726F6475637473203A2000474F4FB4
:10156400442050726F6475637473203A2000544FA2
:1015740054414C2050524F4455435453203A200078
:10158400205772697474656E20546F74616C2050B6
:10159400726F64756374732061743A2000206973F8
:1015A4002000205772697474656E20476F6F642041
:1015B40050726F64756374732061743A00205772BB
:1015C400697474656E204261642050726F6475633F
:0815D40074732061743A2000D9
:107E0000112484B714BE81FFF0D085E080938100F7
:107E100082E08093C00088E18093C10086E0809377
:107E2000C20080E18093C4008EE0C9D0259A86E02C
:107E300020E33CEF91E0309385002093840096BBD3
:107E4000B09BFECF1D9AA8958150A9F7CC24DD24C4
:107E500088248394B5E0AB2EA1E19A2EF3E0BF2EE7
:107E6000A2D0813461F49FD0082FAFD0023811F036
:107E7000013811F484E001C083E08DD089C08234E0
:107E800011F484E103C0853419F485E0A6D080C0E4
:107E9000853579F488D0E82EFF2485D0082F10E0AE
:107EA000102F00270E291F29000F111F8ED06801E7
:107EB0006FC0863521F484E090D080E0DECF843638
:107EC00009F040C070D06FD0082F6DD080E0C81688
:107ED00080E7D80618F4F601B7BEE895C0E0D1E017
:107EE00062D089930C17E1F7F0E0CF16F0E7DF06D8
:107EF00018F0F601B7BEE89568D007B600FCFDCFD4
:107F0000A601A0E0B1E02C9130E011968C91119780
:107F100090E0982F8827822B932B1296FA010C0160
:107F200087BEE89511244E5F5F4FF1E0A038BF0790
:107F300051F7F601A7BEE89507B600FCFDCF97BE46
:107F4000E89526C08437B1F42ED02DD0F82E2BD052
:107F50003CD0F601EF2C8F010F5F1F4F84911BD097
:107F6000EA94F801C1F70894C11CD11CFA94CF0C13
:107F7000D11C0EC0853739F428D08EE10CD085E9AC
:107F80000AD08FE07ACF813511F488E018D01DD067
:107F900080E101D065CF982F8091C00085FFFCCF94
:107FA0009093C60008958091C00087FFFCCF809118
:107FB000C00084FD01C0A8958091C6000895E0E648
:107FC000F0E098E1908380830895EDDF803219F02E
:107FD00088E0F5DFFFCF84E1DECF1F93182FE3DFCA
:107FE0001150E9F7F2DF1F91089580E0E8DFEE27F6
:047FF000FF270994CA
:027FFE00040479
:0400000300007E007B
:00000001FF
